:060000000A128A110C280F
:10000800FE00030EF2000A08F3000A128A154B2DAF
:100018000A128A110F28F601F701F801F901831372
:100028005E30840070300A128A15B5200A128A11CF
:10003800A0308400C2300A128A15B5200A128A112B
:1000480083010A128A11282807300A128A15FE2508
:100058000A128A110A128A158F210A128A110A12A3
:100068008A1591270A128A11413083160313C20098
:10007800C20B3C283F280A128A15E2200A128A116C
:1000880083120313A201A20A01300A128A113F2720
:100098000A128A110B3083120313A3008030A400C4
:1000A8000A128A156D240A128A110A128A15C620A4
:1000B8000A128A115130F4000030F5000A128A152C
:1000C800D8200A128A110030F400F5000A128A15A5
:1000D800BB210A128A11740883120313EE000A1254
:1000E8008A15CF200A128A11343083160313C300ED
:1000F800F130C200C20B7E28C30B7E288312031383
:100108006E0883160313C200C301C401C501450864
:1001180083120313BD0083160313440883120313C9
:10012800BC0083160313430883120313BB00831612
:100138000313420883120313BA000030C1000030D1
:10014800C0000030BF000030BE000030C5000030E5
:10015800C4000030C300FF30C2000030C9000030C6
:10016800C8000030C7000A30C6000030CD0000309B
:10017800CC000030CB001E30CA000A128A11FA25C2
:100188000A128A11831203133B0883160313A5006E
:10019800831203133A0883160313A4000A128A1160
:1001A80097220A128A110A128A1596220A128A11AD
:1001B80083120313ED000030AC00AD006D08831608
:1001C8000313C200C301420883120313AE0083164F
:1001D8000313430883120313AF000A128A155D261E
:1001E8000A128A110A128A15FB240A128A1183122A
:1001F8000313E7000130AC000030AD006D08831632
:100208000313C200C301420883120313AE0083160E
:100218000313430883120313AF000A128A155D26DD
:100228000A128A110A128A15FB240A128A118312E9
:100238000313E6000A128A15E4230A128A118312AC
:100248000313EC000030AC00AD006C0883160313F8
:10025800C200C301420883120313AE0083160313BE
:10026800430883120313AF000A128A155D260A1287
:100278008A110A128A15FB240A128A11831203139F
:10028800E5000130AC000030AD006C0883160313A4
:10029800C200C301420883120313AE00831603137E
:1002A800430883120313AF000A128A155D260A1247
:1002B8008A110A128A15FB240A128A11831203135F
:1002C800E4000A128A155E230A128A1183120313A4
:1002D800EB000030AC00AD006B0883160313C200BE
:1002E800C301420883120313AE00831603134308A5
:1002F80083120313AF000A128A155D260A128A11A7
:100308000A128A15FB240A128A11F8000130831296
:100318000313AC000030AD006B0883160313C20052
:10032800C301420883120313AE0083160313430864
:1003380083120313AF000A128A155D260A128A1166
:100348000A128A15FB240A128A11F7000A128A1562
:100358001B230A128A1183120313EA000030AC002F
:10036800AD006A0883160313C200C3014208831252
:100378000313AE0083160313430883120313AF005D
:100388000A128A155D260A128A110A128A15FB2496
:100398000A128A11F600013083120313AC000030F0
:1003A800AD006A0883160313C200C3014208831212
:1003B8000313AE0083160313430883120313AF001D
:1003C8000A128A155D260A128A110A128A15FB2456
:1003D8000A128A1183160313AC000A128A15A12384
:1003E8000A128A1183120313E9000030AC00AD0031
:1003F800690883160313C200C3014208831203135A
:10040800AE0083160313430883120313AF000A12C6
:100418008A155D260A128A110A128A15FB240A1205
:100428008A1183160313AB00013083120313AC0047
:100438000030AD00690883160313C200C3014208E7
:1004480083120313AE0083160313430883120313A6
:10045800AF000A128A155D260A128A110A128A1535
:10046800FB240A128A1183160313AA000A128A159A
:10047800D8220A128A1183120313E8000030AC0054
:10048800AD00680883160313C200C3014208831233
:100498000313AE0083160313430883120313AF003C
:1004A8000A128A155D260A128A110A128A15FB2475
:1004B8000A128A1183160313A90001308312031349
:1004C800AC000030AD00680883160313C200C301F6
:1004D800420883120313AE008316031343088312E2
:1004E8000313AF000A128A155D260A128A110A122E
:1004F8008A15FB240A128A1183160313A8000A120C
:100508008A1124240A128A11063083160313C300A1
:100518002F30C200C20B8E2AC30B8E2A932A592869
:100528000A128A110C2883120313A201A20A0230AC
:100538000A128A113F270A128A110E3083120313F6
:10054800AC0083160313250883120313AE00831629
:100558000313240883120313AD00AE300A128A1164
:1005680037250A128A11AE3083120313A300003014
:10057800A4000A128A156D240A128A110330831204
:100588000313A20002300A128A113F270A128A11A5
:10059800153083120313A3008030A4000A128A15B1
:1005A8006D240A128A110F3083120313A20001303E
:1005B8000A128A113F270A128A1183120313670845
:1005C8000A128A15EB210A128A110E3083120313BC
:1005D800A20001300A128A113F270A128A118312D7
:1005E800031366080A128A15EB210A128A110D30C4
:1005F80083120313A20001300A128A113F270A123C
:100608008A11133083120313A3008030A4000A1246
:100618008A156D240A128A110C3083120313A20062
:1006280001300A128A113F270A128A118312031312
:1006380065080A128A15EB210A128A110B308312F7
:100648000313A20001300A128A113F270A128A11E5
:100658008312031364080A128A15EB210A128A11FD
:100668000A3083120313A20001300A128A113F27AD
:100678000A128A11133083120313A3008030A400D6
:100688000A128A156D240A128A110930831203137B
:10069800A20001300A128A113F270A128A1178082B
:1006A8000A128A15EB210A128A11083083120313E1
:1006B800A20001300A128A113F270A128A1177080C
:1006C8000A128A15EB210A128A110A3083120313BF
:1006D800A20002300A128A113F270A128A11113029
:1006E80083120313A3008030A4000A128A156D2414
:1006F8000A128A11093083120313A20002300A1267
:100708008A113F270A128A1176080A128A15EB21E4
:100718000A128A11083083120313A20002300A1247
:100728008A113F270A128A11831603132C080A120A
:100738008A15EB210A128A110D3083120313A200C5
:1007480002300A128A113F270A128A1111308312C5
:100758000313A3008030A4000A128A156D240A121C
:100768008A110C3083120313A20002300A128A1174
:100778003F270A128A11831603132B080A128A15B7
:10078800EB210A128A110B3083120313A2000230E4
:100798000A128A113F270A128A11831603132A089C
:1007A8000A128A15EB210A128A110F3083120313D9
:1007B800A20002300A128A113F270A128A118316F0
:1007C800031329080A128A15EB210A128A110E301E
:1007D80083120313A20002300A128A113F270A1259
:1007E8008A118316031328080A128A15EB210A12A4
:1007F8008A11053083120313A20001300A128A11EC
:100808003F270A128A110E3083120313AC006F08B7
:10081800B900BA013908AD003A08AE00AE300A1284
:100828008A1137250A128A11AE3083120313A300E6
:100838000030A4000A128A156D240A128A110800D1
:10084800831203136F03031D2A2C2B2C5D2C7908AC
:10085800EC000A128A11D6270A128A110A128A157E
:10086800C6200A128A11D030F4000030F5000A12AE
:100878008A15D8200A128A110130F4000030F500D8
:100888000A128A15D8200A128A11831203136C08D7
:10089800A000A1012008F4002108F5000A128A1519
:1008A800D8200A128A110A128A15CF200A128A1130
:1008B800362D02306F06031D622C632C9A2C7908A2
:1008C800EB000A128A11D6270A128A110A128A150F
:1008D800C6200A128A11D030F4000030F5000A123E
:1008E8008A15D8200A128A110230F4000030F50067
:1008F8000A128A15D8200A128A11831203136B0868
:10090800A000A1012008F4002108F5000A128A15A8
:10091800D8200A128A110A128A15CF200A128A11BF
:100928000A128A11D6270A128A11362D03306F0649
:10093800031D9F2CA02CCD2C7908EA000A128A11DD
:10094800D6270A128A110A128A15C6200A128A1193
:10095800D030F4000030F5000A128A15D8200A12A7
:100968008A110430F4000030F5000A128A15D820E4
:100978000A128A11831203136A08A000A101200831
:10098800F4002108F5000A128A15D8200A128A11E3
:10099800572C04306F06031DD22CD32C002D790858
:1009A800E9000A128A11D6270A128A110A128A1530
:1009B800C6200A128A11D030F4000030F5000A125D
:1009C8008A15D8200A128A110530F4000030F50083
:1009D8000A128A15D8200A128A1183120313690889
:1009E800A000A1012008F4002108F5000A128A15C8
:1009F800D8200A128A11572C05306F06031D052DC1
:100A0800062D2E2D7908E8000A128A15C6200A122A
:100A18008A11D030F4000030F5000A128A15D82067
:100A28000A128A110630F4000030F5000A128A15FD
:100A3800D8200A128A11831203136808A000A101A2
:100A48002008F4002108F5000A128A15D8200A1295
:100A58008A11572C06306F02031C332D342D362D86
:100A6800EF01362D080083120313B7002D30B300B1
:100A7800E52D253038060319422D432D4D2D370815
:100A880084003808831380000130AF002F08B707AF
:100A9800E52DB201542DC030AF002F08B2046E2DE1
:100AA8000130AC07FF302C0784000A128A150A208F
:100AB8000A128A11B800AF00B0013008003A0319D1
:100AC800662DE52D2F08003A0319F52D753A0319FF
:100AD8004F2DE52D3308840083130008B400840AE1
:100AE8000008B5000230AF002F08B307B801B80AF4
:100AF8003808AF002F07013E84000A128A150A2021
:100B08000A128A11B0000A128A150A200A128A11DA
:100B1800B10031083502031D932D30083402031843
:100B2800962D972D982DA22D0130AF002F08B807CC
:100B380005303806031DA12DA22D7C2D3808B600DE
:100B4800DC2D0A30A7000030A8003608AF002F07B8
:100B5800013E84000A128A150A200A128A11A0008E
:100B68000A128A150A200A128A11A1003508A30060
:100B78003408A2000A128A1527240A128A1183123D
:100B880003132108AA002008A9000A128A155A226C
:100B98000A128A11831203132708303EB800370857
:100BA80084003808831380000130AF002F08B7078E
:100BB800FF30AF002F08B607360A031DE42DE52DD8
:100BC800A52D0130AC07FF302C0784000A128A15C6
:100BD8000A200A128A11B8003808031DF42DF52DD1
:100BE8003D2D370884008313800108008312031306
:100BF8004208CE004308CF004408D0004508D10081
:100C08003E08CE023F08031C3F0F0B2E0C2ECF02CE
:100C18004008031C400F112E122ED0024108031C5D
:100C2800410F172E182ED1025108AF005008AE0000
:100C38004F08AD004E08AC003A08D2003B08D3007C
:100C48003C08D4003D08D5003E08D2023F08031CEA
:100C58003F0F2F2E302ED3024008031C400F352E95
:100C6800362ED4024108031C410F3B2E3C2ED502E0
:100C78005508A3005408A2005308A1005208A00078
:100C88004A08D6004B08D7004C08D8004D08D900B0
:100C98004608D6024708031C470F532E542ED70286
:100CA8004808031C480F592E5A2ED8024908031C1D
:100CB800490F5F2E602ED9025908A7005808A600D0
:100CC8005708A5005608A4000A128A15B3240A1268
:100CD8008A11831203132308B3002208B2002108E3
:100CE800B1002008B0000A128A11A2260A128A113D
:100CF800831203132C084607DA000030031801306A
:100D08002D07DC010318DC0A4707DB000318DC0A9F
:100D18002E085C07DD010318DD0A4807DC0003180C
:100D2800DD0A2F085D074907DD005D08BD005C0886
:100D3800BC005B08BB005A08BA0008008312031302
:100D4800B501AF1FA82EA92EB62EAC09AD09AE0964
:100D5800AF09AC0A0319AD0A0319AE0A0319AF0AA1
:100D6800B501B50AB31FB92EBA2EC92EB009B109FB
:100D7800B209B309B00A0319B10A0319B20A03196F
:100D8800B30A0130F5007508B5060030B900003027
:100D9800B8000030B7000030B6002F082E042D042C
:100DA8002C040319D82ED92E262FB401B40AE92E03
:100DB8000130F5000310AC0DAD0DAE0DAF0DF50B08
:100DC800DE2E0130F5007508B407AF1FEC2EED2EAE
:100DD800DC2E0130F5000310B60DB70DB80DB90DB6
:100DE800F50BEF2E2F083302031D042F2E083202B5
:100DF800031D042F2D083102031D042F2C08300277
:100E0800031C072F082F172F2C08B0022D08031CCE
:100E18002D0FB1022E08031C2E0FB2022F08031C3F
:100E28002F0FB302361401300310AF0CAE0CAD0C0B
:100E3800AC0CFF3E031D182F0130B402031D252FF3
:100E4800262FED2E350803192A2F2B2F362FB609FA
:100E5800B709B809B909B60A0319B70A0319B80ACC
:100E68000319B90A3908AF003808AE003708AD00D1
:100E78003608AC00080083120313A4002403031DE2
:100E8800462F472F662F22087F3EA7002708A3007A
:100E980004300310A30CFF3E031D4D2F2308A500AB
:100EA80027080F39A60025080A128A1513210A12E5
:100EB8008A118312031326080A128A1513210A12AB
:100EC8008A11D52F02302406031D6B2F6C2F8B2F10
:100ED8002208BF3EA7002708A30004300310A30C74
:100EE800FF3E031D722F2308A50027080F39A6000F
:100EF80025080A128A1513210A128A11831203136C
:100F080026080A128A1513210A128A11D52F0330CE
:100F18002406031D902F912FB02F2208933EA7007F
:100F28002708A30004300310A30CFF3E031D972FCE
:100F38002308A50027080F39A60025080A128A15D4
:100F480013210A128A118312031326080A128A151A
:100F580013210A128A11D52F04302406031DB52F38
:100F6800B62FD52F2208D33EA7002708A3000430A8
:100F78000310A30CFF3E031DBC2F2308A500270860
:100F88000F39A60025080A128A1513210A128A1198
:100F98008312031326080A128A1513210A128A11CA
:100FA800D52F08003C30831203136C02031CDD2F7D
:100FB800DE2FE12FEC01F901FC2F0C306B02031C32
:100FC800E62FE72FEA2FEB01F901FC2F0D3069021C
:100FD800031CEF2FF02FF32FE901F901FC2F20302C
:100FE8006A02031CF82FF92FFC2FEA01F901FC2FE4
:020FF8000800EF
:10100000FF1B0A2883137F1883170008840A03191B
:10101000FF0A080008308A000408840A82070034A6
:10102000013400340A34003464340034E8340334C6
:1010300010342734203454340034253475340034CB
:0C1040002F3400343A34003443340034C0
:10116A0064008001840A0406031900340406B628C0
:10117A000A128A15EF200A128A158316031391148C
:10118A0008000A128A15EF200A128A158316031319
:10119A00111408000A128A15EF200A128A158316FA
:1011AA000313111508000A128A15EF200A128A156C
:1011BA007408831203139300080000300A128A1578
:1011CA0013210A128A1501300A128A1513210A12EA
:1011DA008A150800831603131419F428F528EF2832
:1011EA0011081F39031DFA28FB28EF28080083126B
:1011FA000313A100A001211C03290429082974084A
:10120A00F5007508A0070310F40D0310A10C2108BE
:10121A00031D10291129002920080800F50083124E
:10122A000313081175080A128A156D210A128A1504
:10123A008312031388150B3083120313A100613044
:10124A00A000A00B2629A10B26292B298312031300
:10125A008811080083120313A60026080F39A30079
:10126A002608A20004300310A20CFF3E031D3829F1
:10127A0022080F39A4000A30F40024080A128A1539
:10128A00FC200A128A15831203132307A5002508D6
:10129A00080083120313A60026080F39A3002608A4
:1012AA00A20004300310A20CFF3E031D5729220896
:1012BA000139A4000A30F40024080A128A15FC2015
:1012CA000A128A15831203132307A50025080800AA
:1012DA00F400741C712972297629831203130816E3
:1012EA007929831203130812F41C7C297D297F298A
:1012FA00881680298812741D83298429862908174B
:10130A0087290813F41D8A298B298D2988178E2984
:10131A00881308008316031788018901073083168A
:10132A000313860085018801831203138501860150
:10133A00880189018B150B108B178316031315145B
:10134A009514161496141515161581130030831268
:10135A000313B0000130AF008630AE00A030AD00FC
:10136A000A128A1520220A128A1508000A128A15F8
:10137A00EF200A128A158316031391150A128A1589
:10138A00EF200A128A15831203131308A000A10181
:10139A002008A2002108A3000A128A15EF200A12C7
:1013AA008A1574037504031DDB29DC29E0298316D9
:1013BA0003139112E329831603139116111683124C
:1013CA0003132308F5002208F4000800831203130C
:1013DA00A20022080F39A0002208F039A10008153E
:1013EA002108F50004300310F50CFF3E031DF8290F
:1013FA0075080A128A156D210A128A1583120313B7
:10140A0088151A30F500F50B082A00008312031319
:10141A00881120080A128A156D210A128A15831268
:10142A00031388151A30F500F50B192A00008312E8
:10143A0003138811080028308312031394008316BB
:10144A0003139101831203132D08B1002E08B20071
:10145A002F08B3003008B40002300310B10DB20DEA
:10146A00B30DB40DFF3E031D322A3408A30033081E
:10147A00A2003208A1003108A0000030A7007A308B
:10148A00A6001230A5000030A4000A128A15C02650
:10149A000A128A15831203132008FF3E83160313C8
:1014AA00930094018715071608008312031327086F
:1014BA0028040319612A622A912AAB01AB0A702A0D
:1014CA0001300310A70DA80DFF3E031D662A013047
:1014DA00F5007508AB07A81F732A742A652A28081D
:1014EA002A02031D7A2A27082902031C7D2A7E2A3A
:1014FA00842A2708A9022808031CAA03AA02013081
:10150A000310A80CA70CFF3E031D852A0130AB026D
:10151A00031D902A912A742A2A08A8002908A700DC
:10152A0008000A128A15C6200A128A15D030F40059
:10153A000030F5000A128A15D8200A128A150030DE
:10154A00F400F5000A128A15D8200A128A150A121E
:10155A008A15BD200A128A15D130F4000030F50030
:10156A000A128A15D8200A128A150030F400F500EA
:10157A000A128A15BB210A128A15740883120313E8
:10158A00E3000A128A15CF200A128A15831203135E
:10159A0063080A128A152F210A128A158312031365
:1015AA00E300630808000A128A15C6200A128A157F
:1015BA00D030F4000030F5000A128A15D8200A1239
:1015CA008A150630F4000030F5000A128A15D82070
:1015DA000A128A150A128A15BD200A128A15D130F2
:1015EA00F4000030F5000A128A15D8200A128A156A
:1015FA000030F400F5000A128A15BB210A128A1576
:10160A00740883120313DE000A128A15CF200A1205
:10161A008A15831203135E080A128A152F210A12E9
:10162A008A1583120313DE005E0808000A128A155F
:10163A00C6200A128A15D030F4000030F5000A12CA
:10164A008A15D8200A128A150430F4000030F500F1
:10165A000A128A15D8200A128A150A128A15BD207A
:10166A000A128A15D130F4000030F5000A128A15E0
:10167A00D8200A128A150030F400F5000A128A15D9
:10168A00BB210A128A15740883120313E0000A1296
:10169A008A15CF200A128A158312031360080A12C8
:1016AA008A152F210A128A1583120313E000600893
:1016BA0008000A128A15C6200A128A15D030F400C8
:1016CA000030F5000A128A15D8200A128A1502304B
:1016DA00F4000030F5000A128A15D8200A128A1579
:1016EA000A128A15BD200A128A15D130F400003078
:1016FA00F5000A128A15D8200A128A150030F40059
:10170A00F5000A128A15BB210A128A157408831277
:10171A000313E1000A128A15CF200A128A158312CE
:10172A00031361080A128A154E210A128A158312B6
:10173A000313E100610808000A128A15C6200A127A
:10174A008A15D030F4000030F5000A128A15D82024
:10175A000A128A150530F4000030F5000A128A15BB
:10176A00D8200A128A150A128A15BD200A128A1569
:10177A00D130F4000030F5000A128A15D8200A1276
:10178A008A150030F400F5000A128A15BB210A12E4
:10179A008A15740883120313DF000A128A15CF20F0
:1017AA000A128A15831203135F080A128A154E2138
:1017BA000A128A1583120313DF005F0808000A124F
:1017CA008A15C6200A128A15D030F4000030F500B6
:1017DA000A128A15D8200A128A150130F40000303C
:1017EA00F5000A128A15D8200A128A150A128A15D1
:1017FA00BD200A128A15D130F4000030F5000A1211
:10180A008A15D8200A128A150030F400F5000A1247
:10181A008A15BB210A128A15740883120313E2007F
:10182A000A128A15CF200A128A1583120313620834
:10183A000A128A152F210A128A1583120313E2004B
:10184A006208080083120313A501A60120082104D7
:10185A000319302C312C682CA401A40A3F2C013026
:10186A000310A00DA10DFF3E031D352C0130F4001D
:10187A007408A407A11F422C432C342C01300310F6
:10188A00A50DA60DFF3E031D442C21082302031DAE
:10189A00502C20082202031C532C542C5B2C2008A9
:1018AA00A2022108031CA303A3022514013003107A
:1018BA00A10CA00CFF3E031D5C2C0130A402031DE9
:1018CA00672C682C432C2608A1002508A0000800D4
:1018DA0083120313A801A901962C28082307A6003E
:1018EA002408A5000318A50AA81F7C2CA5038312A7
:1018FA0003132508A7002708FF00260884000A12F8
:10190A008A1500200A128A150A128A15EB210A1270
:10191A008A15013083120313A8070318A90A003095
:10192A00A90728082307A6002408A5000318A50A62
:10193A00A81FA02CA503831203132508A7002708B4
:10194A00FF00260884000A128A1500200A128A1546
:10195A00003A031DB12CB22C722C080000308312FD
:10196A000313AB000030AA000030A9000030A80021
:10197A00201CC02CC12CD82C2408A8072508031128
:10198A000318013E0319CA2CA907260803110318D4
:10199A00013E0319D12CAA07270803110318013E97
:1019AA000319D82CAB070130F4000310A40DA50DC0
:1019BA00A60DA70DF40BDA2C01300310A30CA20C10
:1019CA00A10CA00CFF3E031DE22C230822042104D3
:1019DA002004031DF12CF22CBD2C2B08A3002A088D
:1019EA00A2002908A1002808A0000800F400740831
:1019FA00031D002D012D032D30304A2D7403031DC4
:101A0A00072D082D0A2D31304A2D02307406031D88
:101A1A000F2D102D122D32304A2D03307406031D5E
:101A2A00172D182D1A2D33304A2D04307406031D34
:101A3A001F2D202D222D34304A2D05307406031D0A
:101A4A00272D282D2A2D35304A2D06307406031DE0
:101A5A002F2D302D322D36304A2D07307406031DB6
:101A6A00372D382D3A2D37304A2D08307406031D8C
:101A7A003F2D402D422D38304A2D09307406031D62
:101A8A00472D482D4A2D39304A2D08000B1C4E2D62
:101A9A004F2D9C2D831203130618542D552D6B2D93
:101AAA001A30F100F830F000F00B592DF10B592DD6
:101ABA00000083120313061C632D642D9C2D013034
:101ACA00F0007008EF07F9010B109C2D86186E2D97
:101ADA006F2D842D1A30F100F830F000F00B732DC1
:101AEA00F10B732D000083120313861C7D2D7E2DAE
:101AFA009C2D0130F0007008F9070B109C2D061977
:101B0A00872D882D9C2D1A30F100F830F000F00B4B
:101B1A008C2DF10B8C2D000083120313061D962DBC
:101B2A00972D9C2D79080A3EF9000B109C2D7308FD
:101B3A008A00720E8300FE0E7E0E090083120313C2
:101B4A00A501A31FA92DAA2DB12DA209A309A20A95
:101B5A000319A30AA501A50AA11FB42DB52DBA2DF3
:101B6A00A009A109A00A0319A10A2008210403193E
:101B7A00BF2DC02DEF2DA401A40ACE2D01300310D4
:101B8A00A00DA10DFF3E031DC42D0130F400740801
:101B9A00A407A11FD12DD22DC32D21082302031D75
:101BAA00D82D20082202031CDB2DDC2DE22D200873
:101BBA00A2022108031CA303A30201300310A10CF3
:101BCA00A00CFF3E031DE32D0130A402031DEE2DE0
:101BDA00EF2DD22D25080319F32DF42DF92DA20985
:101BEA00A309A20A0319A30A2308A1002208A00034
:101BFA000800F40007307406031D042E052E092E72
:101C0A007030831603138F0406307406031D0E2EDC
:101C1A000F2E152E831603130F088F3960388F0085
:101C2A0005307406031D1A2E1B2E212E831603134C
:101C3A000F088F3950388F0004307406031D262E82
:101C4A00272E2D2E831603130F088F3940388F0045
:101C5A0003307406031D322E332E392E83160313D6
:101C6A000F088F3930388F0002307406031D3E2E5C
:101C7A003F2E452E831603130F088F3920388F0005
:101C8A007403031D492E4A2E502E831603130F0880
:101C9A008F3910388F007408031D542E552E592E73
:101CAA008F30831603138F05831603130F1408004E
:101CBA00643083120313A0000030A1002F08A30090
:101CCA002E08A2000A128A1527240A128A158312DC
:101CDA0003132008B2006430A7000030A8002F08C0
:101CEA00AA002E08A9000A128A155A220A128A156F
:101CFA00831203132708B4000A30A0000030A100A1
:101D0A003408B000B1013008A2003108A3000A1259
:101D1A008A15A3250A128A15831203132008B30011
:101D2A0002302C062D04031D9B2E9C2E9E2E32085B
:101D3A00BF2E2C032D04031DA32EA42EB82E0A3069
:101D4A00A0000030A1003408B000B1013008A200A0
:101D5A003108A3000A128A1528270A128A15831243
:101D6A0003132008BF2E2C082D04031DBD2EBE2EE2
:101D7A00BF2E33080800003083120313AB00003073
:101D8A00AA000030A9000030A80023082204210478
:101D9A0020040319D12ED22E1F2FAC01AC0AE22E39
:101DAA000130F4000310A00DA10DA20DA30DF40B38
:101DBA00D72E0130F4007408AC07A31FE52EE62ED7
:101DCA00D52E0130F4000310A80DA90DAA0DAB0DF4
:101DDA00F40BE82E23082702031DFD2E22082602F3
:101DEA00031DFD2E21082502031DFD2E20082402B5
:101DFA00031C002F012F102F2008A4022108031C06
:101E0A00210FA5022208031C220FA6022308031C85
:101E1A00230FA702281401300310A30CA20CA10C53
:101E2A00A00CFF3E031D112F0130AC02031D1E2F13
:101E3A001F2FE62E2B08A3002A08A2002908A100BA
:101E4A002808A000080083120313A501A11F2E2F42
:101E5A002F2F362FA009A109A00A0319A10AA5014B
:101E6A00A50AA31F392F3A2F432FA209A309A20AB1
:101E7A000319A30A0130F4007408A506A601A701F4
:101E8A002008210403194A2F4B2F822FA401A40AE8
:101E9A00592F01300310A00DA10DFF3E031D4F2F36
:101EAA000130F4007408A407A11F5C2F5D2F4E2F88
:101EBA0001300310A60DA70DFF3E031D5E2F21085A
:101ECA002302031D6A2F20082202031C6D2F6E2F86
:101EDA00752F2008A2022108031CA303A3022614BB
:101EEA0001300310A10CA00CFF3E031D762F013018
:101EFA00A402031D812F822F5D2F25080319862F27
:101F0A00872F8C2FA609A709A60A0319A70A27084B
:101F1A00A1002608A00008008316031308118811DF
:101F2A00081288120813881300300A128A156D21C4
:101F3A000A128A15343083120313A300F130A20067
:101F4A00A20BA52FA30BA52F03300A128A15132162
:101F5A000A128A150D3083120313A300FB30A20064
:101F6A00A20BB52FA30BB52F03300A128A15132122
:101F7A000A128A151D3083120313A3009030A2009F
:101F8A00A20BC52FA30BC52F000003300A128A1516
:101F9A0013210A128A1502300A128A1513210A120B
:101FAA008A1502300A128A1513210A128A15083074
:101FBA000A128A1513210A128A1500300A128A1582
:101FCA0013210A128A150C300A128A1513210A12D1
:101FDA008A1500300A128A1513210A128A15063048
:101FEA000A128A1513210A128A150A128A15E22080
:061FFA000A128A1508001E
:08400000FF3FFF3FFF3FFF3FC0
:04400E00D420FF3F7C
:00000001FF
