:060000000A128A110C280F
:10000800FE00030EF1000A08F2000A128A11752890
:100018000A128A110F28F601F701F80183010A1262
:100028008A115A29F30007307306031D1C281D285E
:1000380021287030831603138F0406307306031DBE
:10004800262827282D28831603130F088F39603890
:100058008F0005307306031D32283328392883168C
:1000680003130F088F3950388F0004307306031DAF
:100078003E283F284528831603130F088F39403838
:100088008F0003307306031D4A284B285128831616
:1000980003130F088F3930388F0002307306031DA1
:1000A800562857285D28831603130F088F392038E0
:1000B8008F007303031D61286228682883160313C1
:1000C8000F088F3910388F007308031D6C286D28AE
:1000D80071288F30831603138F05831603130F14AB
:1000E8000800831203138C1D7A287B28CB2814124E
:1000F800141B7F2880288428941F83288428892813
:100108001308F80014139413141683160313941A7F
:100118008E288F28A928141992289328A928831291
:1001280003131308F8008C11141683160313141CF8
:100138009E289F289928831203131308F800A630D5
:10014800F000F00BA5280000C828941AAC28AD28A8
:10015800C828141DB028B128C8288312031313080F
:10016800F800831603131410760883120313930000
:100178001416A630F000F00BBF28000083160313F6
:100188001418C728C828C228831203138C117208B0
:100198008A00710E8300FE0E7E0E0900F4007408BA
:1001A800031DD728D828EB28C330831203139F05D3
:1001B8004230F300F30BDE280000831203139F1470
:1001C8009F18E728E828E4280C131E082029740340
:1001D800031DEF28F0280C29831203131F08C339C5
:1001E80004389F004230F300F30BF8280000831214
:1001F80003139F149F1801290229FE284230F30097
:10020800F30B04290000831203130C131E08202982
:1002180002307406031D11291229202983120313A1
:100228001F08C33908389F004230F300F30B1A291E
:100238000000831203139F140800731C2429252926
:100248002E2983120313051083160313051483162E
:1002580003170814F31C312932293B29831203138D
:100268008510831603138514831603178814731DCA
:100278003E293F29482983120313051183160313C6
:100288000515831603170815831203139F131F17E9
:10029800831603139F121F129F13831203131F1435
:1002A8004230F500F50B56290000080007300A1205
:1002B8008A1116200A128A110A128A119D210A121D
:1002C8008A110130F3000030F4000A128A1121214A
:1002D8000A128A11F70100300A128A11D2200A1272
:1002E8008A11F60000300A128A11D2200A128A11E5
:1002F8008312031386006F290A128A110C28F3004F
:100308007308831603139300363083120313940083
:100318008030831603139400013091008715071667
:100328008B170B17831203138C11831603138C1569
:1003380008008316031788018901831603138601B1
:100348008801831203138601880150300A128A112A
:0803580083210A128A1108003A
:08400000FF3FFF3FFF3FFF3FC0
:04400E00D420FF3F7C
:00000001FF
